{
  "contractName": "PetShop",
  "abi": [
    {
      "anonymous": false,
      "inputs": [
        {
          "indexed": false,
          "internalType": "uint256",
          "name": "petId",
          "type": "uint256"
        },
        {
          "indexed": false,
          "internalType": "address",
          "name": "adopter",
          "type": "address"
        }
      ],
      "name": "AdoptedEvent",
      "type": "event"
    },
    {
      "inputs": [
        {
          "internalType": "uint256",
          "name": "",
          "type": "uint256"
        }
      ],
      "name": "adoptedPetList",
      "outputs": [
        {
          "internalType": "uint256",
          "name": "",
          "type": "uint256"
        }
      ],
      "stateMutability": "view",
      "type": "function",
      "constant": true
    },
    {
      "inputs": [
        {
          "internalType": "uint256",
          "name": "petId",
          "type": "uint256"
        }
      ],
      "name": "adopt",
      "outputs": [
        {
          "internalType": "bool",
          "name": "",
          "type": "bool"
        }
      ],
      "stateMutability": "nonpayable",
      "type": "function"
    },
    {
      "inputs": [
        {
          "internalType": "uint256",
          "name": "petId",
          "type": "uint256"
        }
      ],
      "name": "isAdopted",
      "outputs": [
        {
          "internalType": "bool",
          "name": "",
          "type": "bool"
        }
      ],
      "stateMutability": "view",
      "type": "function",
      "constant": true
    },
    {
      "inputs": [],
      "name": "getAdoptedPets",
      "outputs": [
        {
          "internalType": "uint256[]",
          "name": "",
          "type": "uint256[]"
        }
      ],
      "stateMutability": "view",
      "type": "function",
      "constant": true
    }
  ],
  "bytecode": "0x608060405234801561001057600080fd5b50610506806100206000396000f3fe608060405234801561001057600080fd5b506004361061004c5760003560e01c80630f46bdb11461005157806343a9668e1461006f5780637541475f1461009f5780638588b2c5146100cf575b600080fd5b6100596100ff565b6040516100669190610386565b60405180910390f35b610089600480360381019061008491906103d9565b610157565b6040516100969190610415565b60405180910390f35b6100b960048036038101906100b491906103d9565b61017b565b6040516100c6919061044b565b60405180910390f35b6100e960048036038101906100e491906103d9565b6101a7565b6040516100f6919061044b565b60405180910390f35b6060600180548060200260200160405190810160405280929190818152602001828054801561014d57602002820191906000526020600020905b815481526020019060010190808311610139575b5050505050905090565b6001818154811061016757600080fd5b906000526020600020016000915090505481565b600080600083815260200190815260200160002060000160149054906101000a900460ff169050919050565b600060405180604001604052803373ffffffffffffffffffffffffffffffffffffffff1681526020016001151581525060008084815260200190815260200160002060008201518160000160006101000a81548173ffffffffffffffffffffffffffffffffffffffff021916908373ffffffffffffffffffffffffffffffffffffffff16021790555060208201518160000160146101000a81548160ff02191690831515021790555090505060018290806001815401808255809150506001900390600052602060002001600090919091909150557fbdeb305d7c2e4c8906aab7a3309de5165c751b2065c7fbb1e4bdb2d235bc421882336040516102ad9291906104a7565b60405180910390a160019050919050565b600081519050919050565b600082825260208201905092915050565b6000819050602082019050919050565b6000819050919050565b6102fd816102ea565b82525050565b600061030f83836102f4565b60208301905092915050565b6000602082019050919050565b6000610333826102be565b61033d81856102c9565b9350610348836102da565b8060005b838110156103795781516103608882610303565b975061036b8361031b565b92505060018101905061034c565b5085935050505092915050565b600060208201905081810360008301526103a08184610328565b905092915050565b600080fd5b6103b6816102ea565b81146103c157600080fd5b50565b6000813590506103d3816103ad565b92915050565b6000602082840312156103ef576103ee6103a8565b5b60006103fd848285016103c4565b91505092915050565b61040f816102ea565b82525050565b600060208201905061042a6000830184610406565b92915050565b60008115159050919050565b61044581610430565b82525050565b6000602082019050610460600083018461043c565b92915050565b600073ffffffffffffffffffffffffffffffffffffffff82169050919050565b600061049182610466565b9050919050565b6104a181610486565b82525050565b60006040820190506104bc6000830185610406565b6104c96020830184610498565b939250505056fea2646970667358221220becf93f2867619ee8188941f0dfd8beb7b99b510ad0f9502e8965012a38a30a664736f6c63430008110033",
  "immutableReferences": {},
  "source": "// SPDX-License-Identifier: MIT\npragma solidity ^0.8;\n\ncontract PetShop {\n\n    // define struct of the pet\n    struct Pet {\n        address adopter;\n        bool adopted;\n    }\n\n    // define hashmap for pets\n    mapping (uint=>Pet) pets;\n    // define variable for adoped pet list\n    uint[] public adoptedPetList;\n\n    // define event\n    event AdoptedEvent(uint petId, address adopter);\n\n    // define an adoped method.\n    // store petId as key and Pet as value in map named pets.\n    // store petId in adoptedPetList.\n    // notify front-end by emitting event.\n    // return true\n    function adopt(uint petId) public returns (bool) {\n        pets[petId] = Pet({ adopter: msg.sender, adopted: true });\n        adoptedPetList.push(petId);\n        emit AdoptedEvent(petId, msg.sender);\n        return true;\n    }\n\n    // return pet's adopted status\n    function isAdopted(uint petId) public view returns (bool) {\n        return pets[petId].adopted;\n    }\n\n    function getAdoptedPets() public view returns (uint[] memory) {\n        return adoptedPetList;\n    }\n}\n",
  "sourcePath": "D:\\Works\\hyali\\eth-projects\\vue3-box\\truffle\\contracts\\PetShop.sol",
  "compiler": {
    "name": "solc",
    "version": "0.8.17+commit.8df45f5f.Emscripten.clang"
  },
  "schemaVersion": "3.4.10",
  "updatedAt": "2022-10-11T14:52:53.923Z",
  "networkType": "ethereum",
  "devdoc": {
    "kind": "dev",
    "methods": {},
    "version": 1
  },
  "userdoc": {
    "kind": "user",
    "methods": {},
    "version": 1
  }
}