{
  "contractName": "PetShop",
  "abi": [
    {
      "anonymous": false,
      "inputs": [],
      "name": "AdoptedEvent",
      "type": "event"
    },
    {
      "inputs": [
        {
          "internalType": "uint256",
          "name": "",
          "type": "uint256"
        }
      ],
      "name": "adoptedPetList",
      "outputs": [
        {
          "internalType": "uint256",
          "name": "",
          "type": "uint256"
        }
      ],
      "stateMutability": "view",
      "type": "function",
      "constant": true
    },
    {
      "inputs": [
        {
          "internalType": "uint256",
          "name": "petId",
          "type": "uint256"
        }
      ],
      "name": "adopt",
      "outputs": [],
      "stateMutability": "nonpayable",
      "type": "function"
    },
    {
      "inputs": [
        {
          "internalType": "uint256",
          "name": "petId",
          "type": "uint256"
        }
      ],
      "name": "isAdopted",
      "outputs": [
        {
          "internalType": "bool",
          "name": "",
          "type": "bool"
        }
      ],
      "stateMutability": "view",
      "type": "function",
      "constant": true
    },
    {
      "inputs": [],
      "name": "getAdoptedPets",
      "outputs": [
        {
          "internalType": "uint256[]",
          "name": "",
          "type": "uint256[]"
        }
      ],
      "stateMutability": "view",
      "type": "function",
      "constant": true
    }
  ],
  "bytecode": "0x608060405234801561001057600080fd5b50610473806100206000396000f3fe608060405234801561001057600080fd5b506004361061004c5760003560e01c80630f46bdb11461005157806343a9668e1461006f5780637541475f1461009f5780638588b2c5146100cf575b600080fd5b6100596100eb565b604051610066919061035d565b60405180910390f35b610089600480360381019061008491906103b0565b610143565b60405161009691906103ec565b60405180910390f35b6100b960048036038101906100b491906103b0565b610167565b6040516100c69190610422565b60405180910390f35b6100e960048036038101906100e491906103b0565b610193565b005b6060600180548060200260200160405190810160405280929190818152602001828054801561013957602002820191906000526020600020905b815481526020019060010190808311610125575b5050505050905090565b6001818154811061015357600080fd5b906000526020600020016000915090505481565b600080600083815260200190815260200160002060000160149054906101000a900460ff169050919050565b60405180604001604052803373ffffffffffffffffffffffffffffffffffffffff1681526020016001151581525060008083815260200190815260200160002060008201518160000160006101000a81548173ffffffffffffffffffffffffffffffffffffffff021916908373ffffffffffffffffffffffffffffffffffffffff16021790555060208201518160000160146101000a81548160ff02191690831515021790555090505060018190806001815401808255809150506001900390600052602060002001600090919091909150557f94d98284ddb4a887d534522a676affd60c06c1ae7b3291e61cec6b954827d90460405160405180910390a150565b600081519050919050565b600082825260208201905092915050565b6000819050602082019050919050565b6000819050919050565b6102d4816102c1565b82525050565b60006102e683836102cb565b60208301905092915050565b6000602082019050919050565b600061030a82610295565b61031481856102a0565b935061031f836102b1565b8060005b8381101561035057815161033788826102da565b9750610342836102f2565b925050600181019050610323565b5085935050505092915050565b6000602082019050818103600083015261037781846102ff565b905092915050565b600080fd5b61038d816102c1565b811461039857600080fd5b50565b6000813590506103aa81610384565b92915050565b6000602082840312156103c6576103c561037f565b5b60006103d48482850161039b565b91505092915050565b6103e6816102c1565b82525050565b600060208201905061040160008301846103dd565b92915050565b60008115159050919050565b61041c81610407565b82525050565b60006020820190506104376000830184610413565b9291505056fea264697066735822122032623c240d3b3cb4c30909db086be9e69df30b2502b1a443b78f230baf5530f264736f6c63430008110033",
  "immutableReferences": {},
  "source": "// SPDX-License-Identifier: MIT\npragma solidity ^0.8;\n\ncontract PetShop {\n\n    // Define struct of the pet\n    struct Pet {\n        address adopter;\n        bool adopted;\n    }\n\n    // Define hashmap for pets\n    mapping (uint => Pet) pets;\n    // Define variable for adoped pet list\n    uint[] public adoptedPetList;\n\n    // Define event\n    event AdoptedEvent();\n\n    // Define an adoped method.\n    // Store petId as key and Pet as value in map named pets.\n    // Store petId in adoptedPetList.\n    // Notify front-end by emitting event.\n    // Return true\n    function adopt(uint petId) public {\n        pets[petId] = Pet({ adopter: msg.sender, adopted: true });\n        adoptedPetList.push(petId);\n        emit AdoptedEvent();\n    }\n\n    // Return pet's adopted status\n    function isAdopted(uint petId) public view returns (bool) {\n        return pets[petId].adopted;\n    }\n\n    // Return adopted pets\n    function getAdoptedPets() public view returns (uint[] memory) {\n        return adoptedPetList;\n    }\n}\n",
  "sourcePath": "E:\\hyali\\eth-projects\\vue3-box\\truffle\\contracts\\PetShop.sol",
  "compiler": {
    "name": "solc",
    "version": "0.8.17+commit.8df45f5f.Emscripten.clang"
  },
  "schemaVersion": "3.4.10",
  "updatedAt": "2022-10-12T06:18:56.357Z",
  "networkType": "ethereum",
  "devdoc": {
    "kind": "dev",
    "methods": {},
    "version": 1
  },
  "userdoc": {
    "kind": "user",
    "methods": {},
    "version": 1
  }
}